:202100000D0A4E6F7420496D706C656D656E746564000D0A434D445F504F4C4C5345545F17
:202120004552524F525F554E4B4E00000D0A44697361626C652074656C656D6574727900B4
:202140000D0A434D445F504F4C4C5345545F4346475F4241445F435243000D0A434D445F3C
:20216000504F4C4C5345545F4346475F4241445F4C454E47544800000D0A4944202854681E
:2021800069732F4672616D65293A2030782578257825782F307825782578257800000D0A82
:2021A0004C454E3A202575000D0A4352432028546869732F46726D293A2020202030782579
:2021C000782F3078257800000D0A46726D732052582F54583A2025752F2575000D0A435256
:2021E00043204572723A202575000D0A5278783A202575000D0A414443204D582F4D4E2084
:2022000025752F2575202825752900000D0A496E76616C696420435243000D0A4654444C39
:202220005F47454E4552414C5F44415441000D0A46545F554E4B4E000D0A4654444C5F508C
:202240004F4C4C5345545F43464700000D0A4654444C5F56414C55455F52455155455354D7
:2022600000000D0A4654444C5F414354494F4E5F434D44000D0A5458474F00005265545811
:202280000D0A00000D0A4E6F64652072656164204572726F722C206F766572777269746571
:2022A00000000D0A4E6F64655B305D20257800000D0A4E6F64655B315D20257800000D0A82
:2022C0004E6F64655B325D20257800000D0A4F4250206461746120726561647900000D0AD3
:2022E0004F425020696E666F207772697474656E00000D0A4F425020696E666F2045726108
:20230000736564000D0A0D0A25732028257320257329000042544C4F414445520000312E4E
:2023200030622E3032004D61792020392032303138000D0A434F4E464944454E5449414C69
:202340002C2050524F5045525459204F46205343484C554D4245524745520D0A0D0A000026
:202360000D0A0D0A4D656E752028257320257329000000CA9A3B00E1F5058096980040422F
:202380000F00A086010010270000E8030000640000000A0000000100000030313233343547
:2023A00036373839414243444546005EBCE2613FDD83C29C7E20A3FD1F41009D23BE46DB13
:0A23C00065F88C11AF32CA57E974BA
:2023CA0081000021B113AE0F0C930224B11328060C43B11304041C43B113A6084F14E2B335
:1023EA0002000424E2C30200B113B2094B1600131F
:0823FA004E020100A80A0100D7
:20240200018FCC0D010000310001005140B91F00A2004A01160F014E02392E03330381B47D
:202422000F0100320433030100FFF0001C0D0100240701000A0E0100010F30400000003F00
:2024420066FFF00000005200000002240000081800003A24000000110000462400005C1840
:02246200000078
:02FFBE00FFFF43
:20FFC0000011041108110C111011141118111C112011241128112C113011341138113C1131
:1EFFE0004011441148114C115011541158115C116011641168116C11701174117811A0
:02FFFE00CA2314
:020000040001F9
:200000005A14C80DC70CF73C3A487D9069000A200A9308343AE31A537D402D008C009218F2
:20002000B113500B064389008623069302200A9326241699020003280A202A99082CA900DE
:20004000040016990200FB2B02202A99F82B35493F497D403000069F0B2802200A95082801
:200060005D530A85067F069F0328FA230A95F82F8C009218B113500B15B3E927BC3C7D4027
:2000800030008C009218B113500BB53C39483A487D906C000C200A930A3439E33AE31953C2
:2000A0000A637D402D008C009218B113500B860072230A930220099326241A9602000328F7
:2000C0000A202996082CA60004001A960200FB2B02202996F82B35463F467D4030000A9FE7
:2000E0000B280220099508285D5309850A7F0A9F0328FA230995F82F8C009218B113500B0B
:2001000015B3E927783C7D4030008C009218B113500B713C8C009218B113500B6C3CE8037C
:200120005A48FEFFCC0A5C0DB113E20DCC0AB113E20D613C1A08043C8C009218B113500B51
:200140007D4A4D93F923573CE8035D48FEFF8C009218B113500B4F3C3A48CC0A4B180C1104
:20016000B113E20DCC0A8C108C11B113E20DCC0A5C0DB113E20DCC0AB113E20D3C3C394896
:200180003A48CF0ACC0F3FB000800F7F3FE34B180C11B113E20DCF0ACC0F3FB000800F7F26
:2001A0003FE38C108C11B113E20DCF0ACC0F3FB000800F7F3FE35C0DB113E20DCC0AB113A8
:2001C000E20DCC09CD0AB1133A0AB113E20DCC09CD0AB1134A0AB113E20DCC09CD0AB113E2
:2001E0005A0AB113E20DCC09B113E20D043C8C009218B113500B7D474D9327247D902500AA
:20020000F6237D474F4D3F906A0011343F906900FB260F931A243F804800B1273F80100000
:200220009B273F800B0090271F83EE26733F3F806C002C272F832A273F8005007B272F837A
:20024000E3263F8003006B27653F551610018F01C20E824F02118F01CC0E824F06118F01FB
:20026000D60E824F0A118F01E00E824F0E118F01EA0E824F12118F01F40E824F16118F01AA
:20028000FE0E824F1A118F01080F824F1E118F01120F824F22118F011C0F824F26118F01A7
:2002A000260F824F2A118F01300F824F2E118F013A0F824F32118F01440F824F36118F01A6
:2002C0007C0E824F3A118F01540E824F3E118F01760F824F42118F016C0F824F46118F016A
:2002E000860E824F4A118F01900E824F4E118F014E0F824F52118F01720E824F56118F01E7
:20030000620F824F5A118F01580F824F5E118F01A40E824F62118F019A0E824F66118F0163
:200320005E0E824F6A118F01680E824F6E118F01B80E824F72118F01AE0E824F76118F00D2
:20034000E623824F7A1110012A143C90F97F1F2CCA0C0C931C242C9205381CB304241A4356
:200360000A5C013C2A4280134C18401882935A180224B11332092900A0180D43033CCD092D
:20038000390D0200990FFFFF0420801350180C43373C2E49CF0E3FE31F530F9AF03BCC0AFC
:2003A000C80A38500600CB0E3BE31B53089B0E28DD0305200018D2490200A018043C001855
:2003C000DD4902000200894F0000163CCF0A4F0E4F0DEF09EF030E5C2E538F4E0000894AB2
:2003E0000000DD030320600FA018023C7D0F02000018DF490200020080135018CC09EC0304
:2004000028161001B1000400D2B302000224D2C30200B240085A2001B1137409B113AA066A
:20042000B240805A2001B113620DB113F80CB240085A2001B113840CCC01B113A6054C93F0
:2004400003201F4204264F130F43B240085A2001E2C302000D143D407F061D83FE230D1617
:200460000343CE0F1F430F5E3E90C900032CE2B30200EB23B240805A2001B1131C0EB11380
:200480002405B1132A0EB113E20AB113B00B1F4204264F13FF3F0A14CA0CDA034124801314
:2004A0004C182F00A018FA03DF0A02280D43053CCD0F3F0D0200DF0AFB2B2E4ACC0E4C0E6B
:2004C0004C0DEC0AEC03DC0F03247A0F0200093C0018DA4F020002002E8F2E538A4E0000A1
:2004E0002E4ADD0314242F4DCC0F4C0E4C0DCB0DFB0CEB03DB0A03247D0A02000A3C0018A2
:20050000DD4A020002000F8E2F83CA0D053C600AA018CF0E3FE31F538A4F000080135018E2
:200520000A1610013A148F000026074F0F194F10084F8F0000260C4F0F194F100D4F8F00D1
:20054000FFFD0E4F0F194F100F4FB113F0088F010026094F0F194F100A4F8F01FFFD0E4FCA
:200560000F194F100F4F0F9A1C2802200E991928CF0A0F184F5F00184FD96E4FCC07CD084C
:20058000B113AC0C1753086319530A638F01FFFD0E4F0F194F100F4F0F9A0328E9230E99DC
:2005A000E72F371610013A14B1000400C90C4843B24095A52A0137408010B113900F4A4316
:2005C0007A9003000D2C4F4AEF076C4F4F4AEF09CF4C0000B113400D5A537A900300F32BF6
:2005E000D297030043180624C9430000C9430100C94302003F4055006F991120F990AA00A3
:2006000001000D20F9905A00020009200018F140CC2200003C400300B1135C0C5843CC084D
:20062000A1000400371610012A148F0000009F00000004248C000000B1139C0740181A427C
:2006400020014018B240805A20018F002E249F003A24132489004C24880064240C3C0C09B9
:200660007F4C5F0600185F4F2E24A90004000D094F13A9000400D908F2237AC23AD0085AC2
:200680004018824A2001B113B60F8F00FA239F00022409248A00FA23033C6A13AA000400DD
:2006A0009A000224FA2328161001C2432100C2432600F240EB002200C2432700C243240029
:2006C000C2432300C2432500F24080002900C2432E00F24023002A00F24080002F00F24028
:2006E00080002C00C2432B00C2432D00D2431900F240F2001B00D2431A00D2431D00C24319
:200700001F00F24019001E00D2433100F240B0003300F24031003200C2433500F2400B00EA
:20072000370010012A14784C0943153C4B0E4B0DCE0DFE0BBE000100AD000100FD4EFFFF87
:200740001F83FA23043CAD000100FD4CFFFF580319533992E83718B3F6237B4C7F4CCE0BA5
:200760005E0ECB0F5B0F3BF00F000BDE3FF00F003F5003003F9012000C207E4C3EB0800091
:2007800007247A4C3EF07F004A4A46180A5A0EDA0F5E3B90FF0FCA23281610011A14C90CF8
:2007A0001B4902000A43293CCC0A3D400C00B113B40D2C524C0E4C0DEC091E4C08008C9386
:2007C0000A000D0C3F0C0400CC0F12200E9310208E002E249E003A240F246E4D5E06001883
:2007E0005E4E2E24AD000100CC0DCD0F4E13023CB113F60D1B4902001A530A9BD52B19168B
:2008000010013A14C80C0018C293541823248A005418090AD80304240018C9980C001520BF
:200820000018EA490000270054183C090400CF09AF0008006F13CC09B11396040018C297DC
:20084000541804248A005418013CCA090018CA930000DF23371610012A14CA0EC90DC80C69
:2008600080134C183C401000B1134803DC0302200A43113C8018F240A20F48187C090400E7
:200880007C0808007C0A0C000018DC4254180000600C54181A43801350180C430A9301205B
:2008A0001C43281610010A14CA0C4018829358180A243E40FFFF3F40FFFF3F9302203E93CD
:2008C0000224BF13FFFF80134C180018C29348180324CC0A801348180018C293441802247F
:2008E0008013441880135018B113A80F0A1610010D9F03281D200C9E1B2CB24002A528019B
:20090000B24000A52C01CB0F0F184B5B00184BDE8B430000B24000A52801B24010A52C01C9
:200920003E8000020F730D9FE82B02200C9EE52B100180134C183F4000064018824FA81864
:200940008E000812600EA0181FB304241F834018824FA8182F4340181F82A8188E4F00003C
:200960000018FE430200600EA418401882435A1820005018F24088005800F293F9100F2408
:200980000D143D4097021D83FE230D160343C2435600D242F9105700D242F8105600D242A1
:2009A00057005700F2F07F005700F240840053001001C2435800F293F9100F240D143D40FB
:2009C00097021D83FE230D160343C2435600D242F9105700D242F8105600F2D040005700BA
:2009E000F2F07F0057003C40F000B1138A0F1001B10010000018F140042300000018F140EB
:200A0000142304000018F1401E2308000018F14026230C002C43B1135C0C0018F140322332
:200A200000002C43B1135C0CA100100010015D015C005D015C005D015C005D015C005D0113
:200A40005C005D015C005D015C005D015C005D015C005D015C005D015C005D015C005D01C6
:200A60005C005D015C005D015C0010011A14C90DCA0C8A4306008A4308008A430A00CA432F
:200A80000C008A490400B113960F0C9304203C400006B113320CCC095D43B113820B7A0C77
:200AA0000000CC0A191610018C0084183D401000B1136C0A8C019C0D8D0084188E00AA1882
:200AC000B11358088C0092183D400002B1136C0A8C019C0D8D0092188E00AA18B113580822
:200AE0001001B1000400B24000A52C01B24002A528013F408010CF430000B24010A52C01B5
:200B00000018F140F22200003C400300B1135C0CB113B00BA10004001001CF0C4C438F930C
:200B2000060001245C434C9312241E4F08004E0E4E0D00186E5FED4E00009F5308009F9F52
:200B40000400080002288F4308009F83060010011F4C04001F838C9F0600122C1F4C0A0057
:200B60004F0E4F0D00186F5CCF4D00009C5306009C530A009C9C04000A0002288C430A0086
:200B800010011A14CA0DC90C4C4ACD09B113B40DB113380E825C3C1892923A183C18022849
:200BA0000C43043C4D4ACC09B113DC0B191610010E3CE2B303000B248C0092188D00411822
:200BC000B1131A0B4C930324D242411867008C009218B1139C0F4C93EC2310010A14CF0CB5
:200BE000CC0DCD0FB113B40DCA0CB1134803DC030924CF0C0A930624AF000100CF43FFFF68
:200C00001A83FA230A1610010A14C29342180F24CA01AA000800AA0004001C43B113460E47
:200C20004C9305243C010800CD0AB11300000A161001824C3A184F437F900A000A2C4E4FFD
:200C40005E068018FE40B20F5C185F537F900A00F62B82433C18D2433E1810010A14C29331
:200C600042180E24CA01AA000800AA000400B113460E4C9305243C010800CD0AB1130000BD
:200C80000A161001F24080005500033CB240085A2001E2B25500FA27033CB240085A2001AA
:200CA000E2B35500FA23F2D255001001B24000A52C01B24040A528010F184D5D00184DDC2D
:200CC000CD4E0000B24000A52801B24010A52C011001B240085A2001B113AA06E2E229007E
:200CE0001E143D408C103E4003001D830E73FD230D93FB231D16F23FD2C36100F2D03000DD
:200D00001B002C43B113800F1C43B113800FD2D30100B113F009B113B00B10011F4C0100E5
:200D20001E4C03000E9302200F930924AD000100CD43FFFF1F830E73F9230F93F7231001EC
:200D40005F4243184CEF4F4C3FF00F004C4C5C0F40185C4CBA2340185CEFAA23C24C4318CA
:200D60001001D2D36100C2436000F24081006100F2400E006400F2408A006200D2C361002B
:200D800010010A14CA0CCC0DDC030424B1139604828A3C181C423C180A1610010A14CA0CD9
:200DA0001C4A04000D0AB113820D8A430400CC0A0A161001021232C20343824C3001824D6B
:200DC00038011C423A01324103431001B10004000018F14000210000B113080CA1000400DB
:200DE00010013CF00F0040185D4C9A238C009218B113500B1001CF0C0E930624AF0001002D
:200E0000FF4DFFFF1E83FA231001CF0CCC0DCD0FAD0005001E4F01008001F60DB24000A5EE
:200E20002C01B24040A528011001B24000A52801B24010A52C0110012F430F5C1CB30124FE
:200E40001F53CC0F10014F43C2BC401801245F43CC0F10014F14B113D20C4B1600134F143D
:200E6000B113D20C4B1600134F14B113D20C4B1600134F14B113D20C4B1600134F14B11343
:200E8000D20C4B1600134F14B113D20C4B1600134F14B113D20C4B1600134F14B113D20C09
:200EA0004B1600134F14B113D20C4B1600134F14B113D20C4B1600134F14B113D20C4B1666
:200EC00000134F14B113D20C4B1600134F14B113D20C4B1600134F14B113D20C4B16001394
:200EE0004F14B113D20C4B1600134F14B113D20C4B1600134F14B113D20C4B1600134F1424
:200F0000B113D20C4B1600134F14B113D20C4B1600134F14B113D20C4B1600134F14B113A2
:200F2000D20C4B1600134F14B113D20C4B1600134F14B113D20C4B1600134F14B113D20C68
:200F40004B1600134F14B113D20C4B1600134F14B113D20C4B1600134F14B113D20C4B16C5
:200F600000134F14B113D20C4B1600134F14B113D20C4B1600134F14B113D20C4B160013F3
:200F8000C2DC40185C4240181001824C2E181001C243431810011C423A1810015C4C06004F
:180FA00010010C43800102080343FF3F03431C431001100110011001E1
:00000001FF
